:100000000C9488000C94E0090C94B5170C94B51767
:100010000C94B5170C94B5170C94B5170C94B51730
:100020000C94B5170C9420130C94B5170C94B517B9
:100030000C94B5170C94B5170C94B5170C94B51710
:100040000C94B5170C94B5170C94B5170C94B51700
:100050000C94B5173F09C209C209C209C2091E0999
:10006000C209C209C209C209C209C209C2094A09B0
:100070003409C209550960096B09760981098C099F
:100080009709A209AD09B809C209C209C20929091B
:10009000C209C209C2096308C209B008C6088408B7
:1000A0006E08C209E7081309C209DC08C209FD0885
:1000B000A508C209C2098F0879080809D1089A0859
:1000C000C209C209C209BB08F208C209C209C209B1
:1000D000C209C209C2096308C209B008C608840877
:1000E0006E08C209E7081309C209DC08C209FD0845
:1000F000A508C209C2098F0879080809D1089A0819
:10010000C209C209C209BB08F2080060008E800063
:1001100011241FBECFE5D8E0DEBFCDBFEAE0F1E09D
:1001200041E017C0B591A59135912591059107FD45
:100130000CC095918591EF01F92FE82F05900D9254
:10014000A217B307D9F7FE0104C01D92A217B30787
:10015000E1F7EF30F40731F70E9405140C942C17E7
:04016000F894FFCF41
:10016400667265713D25302E326600647574793D82
:1001740025302E3166252500543D25302E3266204B
:030184006D730098
:1001870068076C094C836A9074A07AC000806888FD
:0601970000846C8200816F
:10019D00494E4600696E66004E414E006E616E001E
:0601AD00286E696C2900B8
:1001B400A3EAB0E0E0EEF0E00C949C154C01590188
:1001C400C756DF4F488359836A83C959D040212CCD
:1001D400312C6E012BE8C20ED11C85E2782E26014B
:1001E40030E8632ECE018D569F4FC456DF4F99835E
:1001F4008883CC59D0409C0140E8CF55DF4F2883F9
:1002040039834A83C15AD040C756DF4F4881C95900
:10021400D040C656DF4F5881CA59D040C556DF4F2B
:100224006881CB59D040FA01849167FD808188238D
:1002340009F4C9C3CF57DF4F19821882C158D0407F
:100244008FEF9FEFCD57DF4F99838883C358D040FA
:10025400CB57DF4F19821882C558D040A1E0B0E0D7
:10026400AC0FBD1FC957DF4FB983A883C758D0400F
:10027400E0E8F0E0C757DF4FF983E883C958D0407E
:10028400CA01A62FE12CF12CFC012491A7FD2081A9
:1002940021111BC0E114F10401F19701C4010E9472
:1002A400D113C756DF4F88819981AA81C959D0409B
:1002B4008E0D9F1DA11DF7FCAA95C756DF4F88839D
:1002C4009983AA83C959D04008C00196A11D25323B
:1002D40009F3FFEFEF1AFF0AD7CFC756DF4F888124
:1002E4009981AA81C959D040FC012491A7FD20819C
:1002F400253209F056C39C014A2F2F5F3F4F4F4FC1
:10030400C256DF4F288339834A83CE59D040C7561B
:10031400DF4F288339834A83C959D040C756DF4FFA
:1003240088819981AA81C959D040FC012491A7FDF3
:1003340020812B3241F4CF57DF4F28813981C158B6
:10034400D04024600BC02C32CCF02D3259F5CF575D
:10035400DF4F28813981C158D0402160CF57DF4F0A
:1003640039832883C158D0400196A11DC756DF4F59
:1003740088839983AA83C959D040D0CF203241F4CD
:10038400CF57DF4F28813981C158D0402860E6CF4C
:10039400233291F4CF57DF4F28813981C158D0409F
:1003A4002061DCCF203341F4CF57DF4F28813981DE
:1003B400C158D0402260D2CF2A3299F50196A11DAE
:1003C400C756DF4F88839983AA83C959D040D50182
:1003D400ED91FC911197CF0102968D939C938081AE
:1003E4009181CB57DF4F99838883C558D04097FFBD
:1003F4003EC0CF57DF4F28813981C158D040B1E08A
:100404002B27CF57DF4F39832883C158D04091958C
:1004140081959109CB57DF4F99838883C558D04084
:1004240026C0BC018A2F0E949512CB57DF4F9983B7
:100434008883C558D040C756DF4F288139814A8107
:10044400C959D040F901849147FD8081082E000CE0
:10045400990BC0970A9758F42F5F3F4F4F4FC756D9
:10046400DF4F288339834A83C959D040E4CFCF571B
:10047400DF4F88819981C158D04080FF07C08D7FAC
:10048400CF57DF4F99838883C158D040C756DF4F79
:1004940088819981AA81C959D040FC012491A7FD82
:1004A40020812E3209F058C0CD57DF4F19821882AF
:1004B400C358D0409C014A2F2F5F3F4F4F4FC75620
:1004C400DF4F288339834A83C959D040F9015491B5
:1004D40047FD50815A32D1F40296A11DC756DF4F11
:1004E40088839983AA83C959D040D501ED91FC91A1
:1004F4001197CF0102968D939C9380819181CD5762
:10050400DF4F99838883C358D04026C0842FB90114
:100514000E949512CD57DF4F99838883C358D040EA
:10052400C756DF4F288139814A81C959D040F90122
:10053400849147FD8081082E000C990BC0970A977F
:1005440058F42F5F3F4F4F4FC756DF4F28833983EF
:100554004A83C959D040E4CFCE0187569F4F0E94A9
:10056400FD11182FC756DF4F2881C959D040C656F0
:10057400DF4F8881CA59D040C556DF4F9881CB5987
:10058400D040E22FF82F849197FD8081082E000C33
:10059400990B0E945C178936910509F45AC0B4F48A
:1005A4008336910509F466C144F48532910509F452
:1005B400A1C18136910529F1B3C18436910509F4AD
:1005C40048C0883691050CF42DC1AAC18037910525
:1005D40009F4CBC04CF48E36910509F419C18F3659
:1005E400910509F47CC09CC18537910509F454C078
:1005F4008837910509F496C08337910509F090C1B5
:1006040058C1612F70E0A501C6010E945E15892BB7
:1006140009F4B7C1C756DF4F88819981AA81C959A6
:10062400D0409C014A2F2F5F3F4F4F4FC756DF4F9B
:10063400288339834A83C959D040FC012491A7FDFA
:100644002081A601BE016F577F4FC4010E94AF17DE
:1006540095C1612F70E0950141E050E0C6010E9410
:10066400760B892B09F48DC1C756DF4F8881998198
:10067400AA81C959D0400196A11DC756DF4F88836E
:100684009983AA83C959D040A601BE016F577F4FF1
:10069400C4010E94AC1772C1612F70E0950140E063
:1006A40050E0C6010E94760B892B09F46AC1C75633
:1006B400DF4F88819981AA81C959D0400196A11D33
:1006C400C756DF4F88839983AA83C959D040A601AE
:1006D400BE016F577F4FC4010E94AC174FC1612FF9
:1006E40070E0950140E050E0C6010E94760B892B32
:1006F40009F447C1C756DF4F88819981AA81C95936
:10070400D0400196A11DC756DF4F88839983AA83E1
:10071400C959D040A601BE016F577F4FC4010E9442
:10072400AC172CC1612F70E0950140E050E0C60188
:100734000E94760B892B09F424C1C756DF4F8881A8
:100744009981AA81C959D0409C014A2F2F5F3F4FFC
:100754004F4FC756DF4F288339834A83C959D04046
:10076400FC012491A7FD20814BC0950140E050E09D
:1007740060EF70E0C6010E94760B892B09F401C179
:10078400C756DF4F88819981AA81C959D040019603
:10079400A11DC756DF4F88839983AA83C959D040C6
:1007A40086E02DEA31E040E0F901DE01AD56BF4FAD
:1007B400742F0E94FB16D6012C9111963C9111972F
:1007C40012964C91129713965C91139714966C9110
:1007D400149715967C91159716968C9116971796E3
:1007E4009C91A0E00E94201751F400E010E0CF5546
:1007F400DF4F288139814A81C15AD040B9C028E7E6
:10080400A601BE016F577F4FC4010E94AF17B6C047
:10081400612F70E09501A1014E0D5F1DC6010E947C
:100824006C0FAFC0612F70E0A501C6010E945E1578
:10083400892B09F4A6C0C756DF4F88819981AA8104
:10084400C959D0409C014A2F2F5F3F4F4F4FC75685
:10085400DF4F288339834A83C959D040FC0124914E
:10086400A7FD2081A601BE016F577F4FC4010E94DE
:10087400EB0484C0103809F084C0C756DF4F888168
:100884009981AA81C959D0400196A11DC756DF4F4D
:1008940088839983AA83C959D040D501ED91FC91ED
:1008A4001197CF0102968D939C938081F6018083EA
:1008B4005BC0103809F065C0C756DF4F8881998145
:1008C400AA81C959D0400196A11DC756DF4F88831C
:1008D4009983AA83C959D040D501ED91FC91119710
:1008E400CF0103968D939C9320813181428100E056
:1008F40010E03EC0103809F044C0C756DF4F88816D
:100904009981AA81C959D0400196A11DC756DF4FCC
:1009140088839983AA83C959D040F601708224C080
:10092400D6017C92C256DF4F288139814A81CE5943
:10093400D040C756DF4F288339834A83C959D040F2
:10094400CF57DF4F19821882C158D040CB57DF4FA1
:1009540019821882C558D0408FEF9FEFCD57DF4FD3
:1009640099838883C358D04001E010E0462D92015A
:10097400BE016F577F4FC4010E94B2178E0D9F1D99
:1009840011C0C756DF4F88819981AA81C959D040C7
:100994000196A11DC756DF4F88839983AA83C9593D
:1009A400D040C7017101E80EF91EE214F3044CF4BF
:1009B4008FE490E090938900809388008FEF9FEFFD
:1009C40003C0170121CCC101CD55DF4FE2E10C94E6
:0209D400B81554
:1009D600A6E2B0E0E1EFF4E00C949C159F8F8E8FB9
:1009E600798F688F122FFB010190F081E02DFA8735
:1009F600E987FB01C280D380248135813C8B2B8B18
:100A06008085918599A388A30680F781E02DFA83D6
:100A1600E983FA0180809180A280B38020E030E0F3
:100A2600A901C501B4010E94931787FF06C0B7FA52
:100A3600B094B7F8B0948DE204C0F985F2FF0CC308
:100A46008BE2E981FA8180832B893C892150310927
:100A560038872F8341E050E05A8B498B06C08B893B
:100A66009C8998878F831A8A198AD501C401BF7712
:100A76000097E0E8AE07EFE7BE07D9F4212F110F84
:100A8600330B2154310989819A8149895A89840F06
:100A9600951F2A31310520F44DE951E060E003C08D
:100AA60041EA51E060E00E94D31661EA71E080E01D
:100AB6001EC00197A048BF4730F1212F110F330BFD
:100AC6002154310989819A8149895A89840F951F50
:100AD6002A31310520F445EA51E060E003C049EAD5
:100AE60051E060E00E94D31669EA71E080E00E945E
:100AF6000416E981FA81AF0160E8E984FA840B897A
:100B06001C899C01A1C220E030E0A901C501B40105
:100B16000E9493171B821C82882309F467C0F0E8A1
:100B2600FD832FE32E83212C312C20E030E040E2A0
:100B360051E46B817C818D819E810E94A517F62EE2
:100B4600072F8D879B87A50194010E949817181679
:100B560054F03FEF231A330AFB820C834D854D83F5
:100B66005B855E83E2CF1C861B862B813C814D8193
:100B76005E81C501B4010E94931787FF3DC084EDD5
:100B860028168EEF380604F5EB85FC85EF2BE1F48D
:100B960020E030E040E85AE5C501B4010E94A517FF
:100BA6004B015C0120E030E040E85AE56B817C8136
:100BB6008D819E810E94A5176B837C838D839E8386
:100BC60021E030E03C872B8720E030E040E251E432
:100BD6006B817C818D819E810E94A1176B837C83B2
:100BE6008D839E8331E0231A3108BFCF40E84D83C1
:100BF6005FE35E83212C312C812F110F990B9BA370
:100C06008AA30E945C178B8FD7FC03C0DEA2CDA2FD
:100C160004C0E6E0F0E0FEA3EDA3FB8DF73641F459
:100C2600CD2809F01EC221E030E03EA32DA319C253
:100C36008B8D8D8B04C037FE25C296E69D8BEDA16C
:100C4600FEA13196FEA3EDA3FD89F63699F437FE93
:100C560008C01B821C8220E82D833FE33E83212CA3
:100C6600312C4B8D473631F08DA19EA1820D931DFF
:100C76009EA38DA39B819B87EC81ED87FD81FE8BD7
:100C86002E812A8F750164011D8E1C8E8C8D9D8D83
:100C9600EDA1FEA18E179F07C1F12B853D854E89DB
:100CA6005A8DC701B6010E94A1170E94CD0C2B01D7
:100CB6003C010E9464176CA38701760117FB10950F
:100CC60017F910952B853D854E895A8DC301B201C2
:100CD6000E942F0C6B017C01F7FAF094F7F8F09460
:100CE60020E030E040E251E46B857D858E899A8D67
:100CF6000E94A1176B877D878E8B9A8F4C8D5D8D99
:100D06004F5F5F4F5D8F4C8FC1CF20E030E040EAF0
:100D160050E46B857D858E899A8D0E94A5172B01DF
:100D26003C019B01AC01C701B6010E94931787FDE8
:100D36000BC0A3019201C701B6010E94931781114E
:100D460006C0FCA1F0FD03C0412C512C3201A301C9
:100D56009201C501B4010E9481174B015C012D89E6
:100D6600253611F0310102C0612C712C23014DA1F1
:100D76005EA1441A550AC988DA8800E010E01C868C
:100D86001B8689859A85807199279F8B8E8B641423
:100D9600750431F48B859C85892B09F49AC0A6C00D
:100DA600DD8ECC8EE88DF98D808591850597C816E8
:100DB600D90680F72B813C814D815E81C501B40146
:100DC6000E94A1170E94CD0C6D877E878F87988B16
:100DD6000E946417CB01EE89FF89EF2B69F4892BFA
:100DE60059F4FB8DF73641F477FE06C098012F5F64
:100DF6003F4F3D8F2C8F43C04B855C85452BB1F40F
:100E060077FE14C05FEFC51AD50AE981FA818C8D89
:100E16009D8DE80FF91F9EE29083EF81F88531974B
:100E2600F887EF8321E030E03C872B87E981FA8160
:100E3600EC0DFD1D1D8F0C8F8C8D9D8D892B49F022
:100E460030E331934C8D5D8D415051095D8F4C8F50
:100E5600F3CFC8018C0D9D1D2F813885201B310BCA
:100E66006C01EFEFCE1ADE0AE981FA81E80FF91F6D
:100E7600605D6083A9014150510958874F83850100
:100E8600740117FB109517F910952B813C814D8144
:100E96005E816D857E858F8598890E942F0C4B011A
:100EA6005C01B7FAB094B7F8B09420E030E040E2C5
:100EB60051E46B817C818D819E810E94A1176B8399
:100EC6007C838D839E8351E0651A71080C8D1D8D80
:100ED6005ECFF985F4FF0AC0E981FA81EC0DFD1DAC
:100EE6008EE2808396012F5F3F4F690149815A81C7
:100EF6004C0D5D1D5C874B87FA011082FD89F53626
:100F060009F061C0E981FA8128A139A1E20FF31F36
:100F16003197108237FE06C031942194310801E0E2
:100F260010E002C000E010E0E8A1F9A13197498184
:100F36005A81E40FF51F22E030E08AE0E82EF12C1A
:100F4600CF0149815A81841B950B2114310479F014
:100F5600C101B7010E944216805D82931B01215098
:100F660031098F819885019798878F83E9CF12166B
:100F7600130674F3FC013197E40FF51F012B11F4EE
:100F86002BE201C02DE220830297E981FA81E80F66
:100F9600F91F2AA13BA1215431092A31310510F04C
:100FA60025E601C025E420832F81388522503109AA
:100FB60038872F83C816D90634F4AF0160E88B85CD
:100FC6009C850E94D31649815A813A0180E8882E71
:100FD600998591FF2EC090FD2CC0EF81F8851E16D5
:100FE6001F063CF5882DB3010E94041629813A811B
:100FF600820F931F9C0149815A81241B350BE98975
:10100600FA892E173F074CF0FC012081EF81F88505
:10101600E80FF91F20830197EDCF4F81588560E3D4
:1010260070E089819A818E0F9F1F0E9453171C8A38
:101036001B8A882DB3010E940416E984FA840B8961
:101046001C899C01682DA3018E8D9F8D0E94F10D38
:10105600A696E2E10C94B815598553FF00CD80E2BF
:10106600F0CC2CEF22162FEF32064CF04DA15EA1EC
:10107600241635060CF4DFCD55E65D8BFBCD35E643
:0A1086003D8BF8CD46E64D8BF5CD0D
:10109000E82F91E080918B00811190E081E0209118
:1010A0008C00293308F080E0892B09F488C18E2F49
:1010B00090E0FC01B097EB35F10508F063C1E65D07
:1010C000FF4F0C948D172CE732E141E152E16CE7C0
:1010D00070E080E090E00E94051154C12FE739E0F4
:1010E00049E059E061E070E080E090E00E94051185
:1010F00049C12FE739E049E159E26FE470E080E04F
:1011000090E00E9405113EC12FE739E449E459E41B
:1011100061E470E080E090E00E94051133C12EE1AF
:1011200031E241E35EE360E470E080E090E00E9441
:10113000051128C12FE330E440E450E46FE370E090
:1011400080E090E00E9405111DC12FE732E04CE1E4
:1011500050E26FE770E080E090E00E94051112C15C
:101160002EE331E441E451E461E470E080E090E09A
:101170000E94051107C123E03CE040E75CE063E02A
:1011800070E080E090E00E940511FCC02FE731E4A0
:1011900041E45EE360E070E080E090E00E940511D1
:1011A000F1C021E031E04FE751E061E070E080E024
:1011B00090E00E940511E6C02FE738E044E152E2DA
:1011C00061E470E080E090E00E940511DBC02FE751
:1011D00038E048E058E06FE770E080E090E00E947F
:1011E0000511D0C021E631E549E455E463E470E03F
:1011F00080E090E00E940511C5C02FE732E04CE08E
:1012000052E06FE770E080E090E00E940511BAC004
:101210002FE439E449E459E469EF70E080E090E0BC
:101220000E940511AFC021E431E44FE751E461E4CD
:1012300070E080E090E00E940511A4C023EC33E749
:1012400048E15EEC63EC70E080E090E00E94051104
:1012500099C024E234E244E254E264E270E080E0C7
:1012600090E00E9405118EC020E030E740E750E793
:1012700060E070E080E090E00E94051183C020E013
:1012800030E040E050E060E070E080E090E00E94FC
:10129000051178C028E138E148E158E168E170E0E3
:1012A00080E090E00E9405116DC02EE331E549E435
:1012B00055E46EE370E080E090E00E94051162C0AA
:1012C00024E432E44FE750E460E470E080E090E032
:1012D0000E94051157C026E431E641E55EE460E472
:1012E00070E080E090E00E9405114CC021E439E4F8
:1012F00049E459E466E370E080E090E00E94051163
:1013000041C028E134E142E15FE760E170E080E064
:1013100090E00E94051136C02FE439E449E451E51C
:1013200061E270E080E090E00E9405112BC02CE7A4
:101330003AE449E459E461E370E080E090E00E941F
:10134000051120C021E039E449E259E16FE070E085
:1013500080E090E00E94051115C027E739E449E4D8
:1013600059E467E770E080E090E00E9405110AC050
:101370002FE439E449E459E46FE770E080E090E05D
:101380000E94051180918D0088540E941E15809145
:101390008C00805C0E941E1580E00E943E158091AA
:1013A0008C008F5F80938C00803448F080918B009C
:1013B000811105C082E00E949D1310928C00089557
:1013C0001F920F920FB60F921124AF92BF92CF923D
:1013D000DF92EF92FF920F931F932F933F934F93C0
:1013E0005F936F937F938F939F93AF93BF93CF93AD
:1013F000DF93EF93FF9380918A0081114DC020917C
:101400008000309181004091820050918300609172
:10141000840070918500809186009091870000E1A2
:101420000E94D315A22EB32EC42ED52EE62EF72E53
:10143000082F192F8CB59DB5282F392F40E050E08B
:1014400060E070E080E090E00E944A1702E00E94B5
:10145000D315209378003093790040937A0050930D
:101460007B0060937C0070937D0080937E0090935E
:101470007F001092800010928100109282001092E2
:1014800083001092840010928500109286001092C2
:1014900087001DBC1CBC4CC0209180003091810095
:1014A000409182005091830060918400709185008A
:1014B000809186009091870000E10E94D315A22EB2
:1014C000B32EC42ED52EE62EF72E082F192F8CB54D
:1014D0009DB5282F392F40E050E060E070E080E0BB
:1014E00090E00E944A1702E00E94D3152093680002
:1014F0003093690040936A0050936B0060936C00D6
:1015000070936D0080936E0090936F001092800036
:101510001092810010928200109283001092840039
:101520001092850010928600109287001DBC1CBC92
:1015300061E080918A00811160E060938A0080E020
:101540000E94A910FF91EF91DF91CF91BF91AF91D0
:101550009F918F917F916F915F914F913F912F91CB
:101560001F910F91FF90EF90DF90CF90BF90AF90C1
:0A1570000F900FBE0F901F9018950A
:10157A00DF92EF92FF920F931F93CF93DF9386E050
:10158A000E941A1620E430E44EE752E062E070E06E
:10159A0080E090E00E9405112AE037ED43EA5DE31E
:1015AA006091700070917100809172009091730047
:1015BA000E94A5170E9464177B01C1E00BC022E0BC
:1015CA0032E042E052E062E070E080E090E00E94A7
:1015DA000511CF5F8C2F90E087010F5F1F4F801797
:1015EA0091076CF322E032E04EE750E460E470E0E9
:1015FA0080E090E00E940511DD24D3940BC020E422
:10160A0030E440E450E460E470E080E090E00E945E
:10161A000511D3948D2D90E0C9E0D0E0CE19DF09F1
:10162A008C179D0764F320E430E44EE752E062E051
:10163A0070E080E090E00E940511FF24F3940BC053
:10164A0022E032E042E052E062E070E080E090E0C6
:10165A000E940511F3948F2D90E08017910784F36F
:10166A0022E032E04EE750E460E470E080E090E08F
:10167A000E940511FF24F3940BC020E430E440E4F7
:10168A0050E460E470E080E090E00E940511F39479
:10169A008F2D90E08C179D0784F320E430E44EE709
:1016AA0052E062E070E080E090E00E940511C1E043
:1016BA000BC022E032E042E052E062E070E080E0FB
:1016CA0090E00E940511CF5F8C2F90E08017910760
:1016DA0084F3DF91CF911F910F91FF90EF90DF90EC
:0216EA00089561
:1016EC000F931F93CF93DF93FC01D90168387105D9
:1016FC0031F194F461387105B1F12CF46038710555
:10170C0009F478C09FC06238710509F459C0643877
:10171C00710509F46FC096C0603A710509F448C0B0
:10172C002CF46039710509F44BC08CC0603C710518
:10173C0009F476C0603F710509F472C083C0CD9185
:10174C00DC911197CE0102968D939C93452B39F029
:10175C009881892F880F880B908381835BC0888147
:10176C008083118268C0CD91DC911197CE010496D3
:10177C008D939C93452B99F088819981AA81BB818B
:10178C00AC01BD01770F440B542FBA0180839183B8
:10179C00A283B383448345834683478328C008814F
:1017AC0019812A813B81008311832283338345C0B5
:1017BC00CD91DC911197CE0102968D939C9323C011
:1017CC00CD91DC911197CE0108968D939C937881E5
:1017DC0069815A814B813C812D819E818F817083DF
:1017EC00618352834383348325839683878381E08B
:1017FC0090E02AC0CD91DC911197CE0102968D9389
:10180C009C93452BA1F099812881892F880F880BF7
:10181C002083918382838383848385838683E6CF2D
:10182C00CD91DC911197CE0102968D939C930881FA
:10183C0019810083118312821382148215821682FD
:10184C001782D5CF80E090E0DF91CF911F910F915F
:02185C000895ED
:10185E00A5E1B0E0E5E3FCE00C949C1547015801CE
:10186E000E94A5172B013C01A80197010E94811728
:10187E00162FC72ED82EF92E862F9C2DAD2DBF2DAF
:10188E0089839A83AB83BC83AA81FB81EC81ED8033
:10189E003E802F8008850D8B5E2F5F71212F3A2F92
:1018AE004F2F60E070E080E090E02115310541059A
:1018BE0000E15007610571058105910509F05EC0D3
:1018CE005E2F6E2D732D822D9D8904E30E9480154F
:1018DE002D873E874F87588B698B7A8B8B8B9C8B92
:1018EE008D859E8597708F3F974009F447C0A30161
:1018FE009201612F7C2D8D2D9F2D0E9480179B01B3
:10190E00AC01C501B4010E9493178823B9F1498631
:10191E005A866B867C8629853A854B855C85C50102
:10192E00B4010E948117B62E872E982EA92E262F2F
:10193E00372F482F592F612F7C2D8D2D9F2D0E94D3
:10194E009317811118C02B2D8B2D982DA92DBA2DE3
:10195E0089839A83AB83BC833A814B815C816E2DE4
:10196E00732D822D9D89A1E00E940817122FC32E80
:10197E00D42EF52E03C01B2D6401FA2C612F7C2D65
:0C198E008D2D9F2D6596E2E10C94B8159C
:10199A004F925F926F927F928F929F92AF92BF9275
:1019AA00CF92DF92EF92FF92CF93DF93CDB7DEB75C
:1019BA0028970FB6F894DEBF0FBECDBF6B017C012E
:1019CA00DC01CB0147E1B695A795979587954A958E
:1019DA00D1F799278F579109873191059CF597FD82
:1019EA0036C088248A94982C3FE7A32EB12C04C0D1
:1019FA00B594A794979487948A95D2F7D501C40190
:101A0A008C219D21AE21BF21892B8A2B8B2BD1F0D2
:101A1A0020E030E040E85BE7C701B6010E94811789
:101A2A006D837E838F839887F7FE04C0C80CD91C08
:101A3A00EA1CFB1C80949094A094B094C820D920EE
:101A4A00EA20FB205C2D4D2D3E2D2F2D21C020E0BC
:101A5A0030E040E85BE7C701B6010E94811769835D
:101A6A007A838B839C83F7FE0FC0D701C601880F48
:101A7A00991FAA1FBB1F892B8A2B8B2B19F350E0A6
:101A8A0040E030E82FEB04C050E040E030E020E0D6
:101A9A00652F742F832F922F28960FB6F894DEBFE6
:101AAA000FBECDBFDF91CF91FF90EF90DF90CF9027
:101ABA00BF90AF909F908F907F906F905F904F9064
:021ACA0008957D
:101ACC004F925F926F927F928F929F92AF92BF9242
:101ADC00CF92DF92EF92FF920F931F93CF93DF93EE
:101AEC00409068005090690060906A0070906B00A4
:101AFC0080906C0090906D00D0916E00C0916F0042
:101B0C00242D352D462D572D682D792D8D2F9C2F5D
:101B1C00A0907800B0907900C0907A00D0907B00B3
:101B2C00E0907C00F0907D0000917E0010917F0091
:101B3C000E944A172093600030936100409362002A
:101B4C00509363006093640070936500809366000B
:101B5C00909367000E945F136B017C019B01AC01A9
:101B6C0060E070E08AE794E40E94A117609374002F
:101B7C00709375008093760090937700242D352D0B
:101B8C00462D572D682D792D8D2F9C2F0E945F137C
:101B9C0020E030E048EC52E40E94A517A701960122
:101BAC000E94A11760937000709371008093720073
:101BBC0090937300DF91CF911F910F91FF90EF9055
:101BCC00DF90CF90BF90AF909F908F907F906F9051
:061BDC005F904F90089598
:101BE2002F923F924F926F927F928F92AF92BF92BB
:101BF200CF92DF92EF92FF920F931F93CF93DF93D7
:101C0200CDB7DEB766970FB6F894DEBF0FBECDBF75
:101C12005C013A01862E6901C701817099279C8B6C
:101C22008B8BE0FC1DC020173107D4F47801EC182F
:101C3200FD08FE8AED8AA70191E1E916F10410F090
:101C420040E150E060E270E0CE0101969A8B898B10
:101C52000E94531789899A891C0120E8422E0BC0E1
:101C62009601682DA301C5010E94D113C016D106A9
:101C7200ECF2C60125C090E1E916F10458F020E12A
:101C820030E0642DA101C5010E94D11380E1E81A60
:101C9200F108F1CF2D893E892F70332789899A89DE
:101CA200AC0160E8C5010E94D1138B899C89892B04
:101CB20031F49601682DA301C5010E94D113C80118
:101CC20066960FB6F894DEBF0FBECDBFDF91CF91FF
:101CD2001F910F91FF90EF90DF90CF90BF90AF9048
:0E1CE2008F907F906F904F903F902F900895BD
:101CF0000F931F93CF93DF93CDB7DEB72A970FB61D
:101D0000F894DEBF0FBECDBF0E94B21480E00E94E7
:101D10001A16809177008F93809176008F9380912F
:101D200075008F93809174008F9384E691E0A0E01A
:101D3000AF939F938F938E010F5F1F4F1F930F934E
:101D40000E946A16C8010E94E11682E00E941A16DB
:101D5000809173008F93809172008F9380917100B6
:101D60008F93809170008F938FE691E0A0E0AF9306
:101D70009F938F931F930F930E946A16C8010E942E
:101D8000E11685E00E941A162091600030916100F2
:101D90004091620050916300609164007091650011
:101DA00080916600909167000E945F132FE632E1F8
:101DB00043E85AE30E94A5179F938F937F936F93F5
:101DC0008CE791E0A0E0AF939F938F931F930F93C5
:101DD0000E946A16C8010E94E1160FB6F894DEBF91
:101DE0000FBECDBF2A960FB6F894DEBF0FBECDBF93
:0A1DF000DF91CF911F910F9108952C
:101DFA0010C00E94721758F00E946B1740F029F425
:101E0A005F3F29F00C94871751110C947A170C94A0
:101E1A00A9170E94FC1468F39923B1F3552391F38F
:101E2A00951B550BBB27AA2762177307840738F03F
:101E3A009F5F5F4F220F331F441FAA1FA9F335D09C
:101E4A000E2E3AF0E0E832D091505040E695001C50
:101E5A00CAF72BD0FE2F29D0660F771F881FBB1F0A
:101E6A00261737074807AB07B0E809F0BB0B802DE8
:101E7A00BF01FF2793585F4F3AF09E3F510578F014
:101E8A000C9487170C947A175F3FE4F3983ED4F3C7
:101E9A00869577956795B795F7959F5FC9F7880FE8
:101EAA00911D9695879597F90895E1E0660F771F3A
:101EBA00881FBB1F621773078407BA0720F0621BCB
:0E1ECA00730B840BBA0BEE1F88F7E09508959A
:101ED800CF93DF93DC01F90164387105D9F164F41B
:101EE8006138710521F16238710509F440C0603824
:101EF800710509F054C02EC060397105C1F184F430
:101F08006838710509F04BC0C081D181CE010296B5
:101F180091838083E881F981ED93FC9340833CC0F1
:101F2800603A7105B9F0603C7105A1F038C0C08114
:101F3800D181CE01029691838083E881F981ED9366
:101F4800FC93052E000C660B770B4083518362834C
:101F5800738322C0C081D181CE0102969183808390
:101F6800E881F981ED93FC935183408315C0C081CA
:101F7800D181CE01029691838083E881F981ED9326
:101F8800FC9351834083852F880F880B828383833A
:101F9800848385838683878381E090E002C080E024
:081FA80090E0DF91CF91089554
:101FB0000FC00E946B1738F00E94721720F0952313
:101FC00011F00C9487170C94A91711240C947A170C
:101FD0000E94FC1470F3959FC1F3950F50E0551FBC
:101FE000629FF001729FBB27F00DB11D639FAA276E
:101FF000F00DB11DAA1F649F6627B00DA11D661FBD
:10200000829F2227B00DA11D621F739FB00DA11DDD
:10201000621F839FA00D611D221F749F3327A00D97
:10202000611D231F849F600D211D822F762F6A2F33
:1020300011249F5750409AF0F1F088234AF0EE0F98
:10204000FF1FBB1F661F771F881F91505040A9F7C5
:102050009E3F510580F00C9487170C947A175F3FD0
:10206000E4F3983ED4F3869577956795B795F79501
:10207000E7959F5FC1F7FE2B880F911D9695879579
:0420800097F908952F
:1020840011C00E946B1738F00E94721720F039F4C7
:102094009F3F19F426F40C94A9170EF4E095E7FB7E
:1020A4000C948717E92F0E94FC1458F3BA1762079F
:1020B40073078407950720F079F4A6F50C94791733
:1020C4000EF4E0950B2EBA2FA02D0B01B90190014F
:1020D4000C01CA01A0011124FF27591B99F0593F93
:1020E40050F4503E68F11A16F040A22F232F342FDB
:1020F4004427585FF3CF469537952795A795F04029
:102104005395C9F77EF41F16BA0B620B730B840B3D
:10211400BAF09150A1F0FF0FBB1F661F771F881FF5
:10212400C2F70EC0BA0F621F731F841F48F487954D
:1021340077956795B795F7959E3F08F0B0CF93953F
:0E214400880F08F09927EE0F9795879508955C
:10215200813049F120F0823009F449C0089561309C
:1021620069F028F0623089F06330B1F0089585B7E4
:10217200816085BF85B7826085BF089585B78E7FF0
:1021820085BF85B7826085BF089585B78E7F85BF7D
:1021920085B78D7F85BF089585B7816085BF85B777
:1021A2008D7F85BF0895613069F028F0623089F033
:1021B2006330B1F0089585B7846085BF85B78860C4
:1021C20085BF089585B78B7F85BF85B7886085BF3A
:1021D200089585B78B7F85BF85B7877F85BF0895B3
:1021E20085B7846085BF85B7877F85BF08956623DD
:1021F20019F0613029F0089584B7806484BF08958E
:0822020084B78F7B84BF0895AF
:10220A009F92AF92BF92CF92DF92EF92FF920F937B
:10221A001F93CF93DF93922EA32EB42EC52ED62EC4
:10222A00E72EF82ED92FC0E030C080918D00885457
:10223A000E941E1580918C00805C0E941E150C2F36
:10224A0010E0000F111F000F111F000F111F292D81
:10225A003A2D4B2D5C2D6D2D7E2D8F2D9D2F0E949D
:10226A008015822F0E943E1580918C008F5F80938B
:10227A008C00803448F080918B00811105C082E087
:10228A000E949D1310928C00CF5FC53070F2DF91CF
:10229A00CF911F910F91FF90EF90DF90CF90BF9059
:0622AA00AF909F90089523
:1022B0008130A9F028F0823009F1833071F13CC0FF
:1022C0006130E9F118F0623039F003C08AE390E040
:1022D000089580E090E0089589E390E008956130EA
:1022E00089F118F0623039F003C087E390E0089577
:1022F00080E090E0089586E390E00895613029F150
:1023000018F0623039F003C084E390E0089580E073
:1023100090E0089583E390E008956130C9F018F0EB
:10232000623039F003C081E390E0089580E090E0EE
:10233000089580E390E0089580E090E008958BE3B5
:1023400090E0089588E390E0089585E390E0089593
:0623500082E390E0089515
:102356006F927F928F92EF92FF920F931F93CF937C
:10236600DF93CDB7DEB761970FB6F894DEBF0FBE29
:10237600CDBFFE01319651E1DF011D925A95E9F775
:10238600A2E0B1E0BA83A9839C838B8377FF09C05F
:102396008FE490E090938900809388008FEF9FEF01
:1023A60019C03901842E7C01615071097F836E83C7
:1023B6009801682DA301CF010E94EC154885598527
:1023C6002E813F814217530708F49A01F701E20F65
:1023D600F31F108261960FB6F894DEBF0FBECDBF15
:1023E600DF91CF911F910F91FF90EF908F907F908B
:0423F6006F90089547
:1023FA00CF92DF92EF92DC0190E0292F30E0220F9A
:10240A00331F6901032E000CEE086E2DA6014957F1
:10241A005E4F6F4F6A01E62EFA018491E7FC8081D4
:10242A0081110DC02F5F3F4F032E000C440B29571B
:10243A003E4F4F4FF901849147FD808124C0CD90D2
:10244A00DD90EC901297F6014491E7FC40818413E9
:10245A0015C02F5F3F4F032E000C440B29573E4FE8
:10246A004F4FF901949147FD90815FEFC51AD50A44
:10247A00E50ACD92DD92EC92129701C09F5F9B30E4
:0E248A0008F4BBCF892FEF90DF90CF9008951C
:102498000F931F93CF93DF93DB012D913C911197FD
:1024A80030FF25C017964D915C91189715962D9180
:1024B8003C9116974217530778F41296ED91FC91C8
:1024C8001397808312962D913C9113972F5F3F4F5E
:1024D80013963C932E93129717962D913C9118972B
:1024E8002F5F3F4F18963C932E93179715C01D9654
:1024F800ED91FC911E97309719F48FEF9FEF0CC068
:102508008B01EC010995892BC1F7F801878190852A
:10251800019690878783CE01DF91CF911F910F910C
:02252800089514
:10252A00CF939B01482FF901849147FD8081803226
:10253A00C9F1682F082E000C770B695071096530B4
:10254A00710580F18B3249F5A0E0B0E02F5F3F4F73
:10255A004F4F02C0A0E0B0E080E090E0CAE0F9018D
:10256A00649147FD6081062E000C770B6053710958
:10257A006A30710560F4C89FF001C99FF00D1124FB
:10258A002F5F3F4F4F4FCF01861B970BE8CFAB2BE7
:10259A0069F491958195910909C08D32D9F6A1E026
:1025AA00B0E0D4CF2F5F3F4F4F4FBDCFCF910895AB
:1025BA0041E060E081E00E94641441E062E081E071
:1025CA000E94641441E061E081E00E94641441E0E9
:1025DA0066E081E00E94641441E064E081E00E94C8
:1025EA00641441E065E081E00E94641461E080E0E7
:1025FA000E947D1641E066E081E00E948B1483E030
:10260A000E949D138EE30E941E1588EB0E941E15E0
:10261A0010928D0080E40E941E1510928C0080ECAE
:10262A000E941E158FE30E941E1581E00E949D13D1
:06263A0010928B000895D0
:102640001F920F920FB60F9211242F933F934F9327
:102650005F936F937F938F939F93AF9320918000AD
:1026600030918100409182005091830060918400FC
:10267000709185008091860090918700A1E00E9472
:10268000081720938000309381004093820050937C
:1026900083006093840070938500809386009093FC
:1026A0008700AF919F918F917F916F915F914F9133
:0E26B0003F912F910F900FBE0F901F90189525
:1026BE00E894F92F96EBFF2381F0121613061406F9
:1026CE00440B9395F695879577956795579540406A
:1026DE00FF23B9F71BC099270895882351F498500A
:1026EE00D2F7872B762F652F542F432F322F20E0D2
:1026FE00B1F3121613061406440B88233AF09A957A
:10270E00440F551F661F771F881FCAF755234AF4BB
:10271E00440F551F11F460FF04C06F5F7F4F8F4F42
:0C272E009F4F880F9695879597F90895A6
:10273A00813089F028F08230C9F0833011F1089590
:10274A0040E064E081E00E948B1440E065E081E0B3
:10275A000E948B14089541E064E081E00E948B148A
:10276A0040E065E081E00E948B14089540E064E057
:10277A0081E00E948B1441E065E081E00E948B14A5
:10278A00089541E064E081E00E948B1441E065E035
:08279A0081E00E948B140895F8
:1027A2006F927F928F92CF92DF92EF920F931F934D
:1027B200CF93DF938C016A01E62EE9013A01862E5E
:1027C200620E731E811C37FD8A94C614D704E80476
:1027D20079F0F6018491E7FC8081B801082E000CA3
:1027E200990B0E944C128FEFC81AD80AE80AEDCF53
:1027F200CE01DF91CF911F910F91EF90DF90CF909B
:082802008F907F906F90089504
:10280A0040E062E083E00E94641441E063E081E01A
:10281A000E9464140E949D1760E080E00E94A91043
:10282A0080E00E948F160E94EE1680E50E942E1606
:10283A000E94A1160E9437170E94DD120E94B2144C
:10284A000E94660D0E94780E0E94BD0A2FEF89E64B
:10285A0098E1215080409040E1F700C00000F0CF9D
:10286A000E94041588F09F5798F0B92F9927B751FD
:10287A00B0F0E1F0660F771F881F991F1AF0BA951A
:10288A00C9F714C0B13091F00E947917B1E00895E8
:10289A000C947917672F782F8827B85F39F0B93FDA
:1028AA00CCF3869577956795B395D9F73EF49095CD
:0E28BA008095709561957F4F8F4F9F4F0895C9
:1028C800CF93DF93D62FC42F60E00E945811CC23FA
:1028D80019F0C13071F018C0FC01408121E030E0EE
:1028E80002C0220F331FDA95E2F7209524232083B4
:1028F8000BC0FC01408121E030E002C0220F331FF1
:0E290800DA95E2F7242B2083DF91CF9108951A
:10291600CF93DF93D62FC42F61E00E945811CC23AA
:1029260019F0C13071F018C0FC01408121E030E09F
:1029360002C0220F331FDA95E2F720952423208365
:102946000BC0FC01408121E030E002C0220F331FA2
:0E295600DA95E2F7242B2083DF91CF910895CC
:10296400CF93DF93D0E013C08D2F0E941A1683E01B
:102974000E949D13C0E008C080E48C0F0E941E15C5
:1029840080E00E943E15CF5FC034B0F3DF5FD830E3
:1029940058F30E94C41681E00E949D1310928B008C
:0C29A40080E00E941A16DF91CF91089588
:1029B000990F0008550FAA0BE0E8FEEF1616170650
:1029C000E807F907C0F012161306E407F50798F0B8
:1029D000621B730B840B950B39F40A2661F0232BD1
:1029E000242B252B21F408950A2609F4A140A6954D
:0829F0008FEF811D811D089588
:1029F80057FD9058440F551F59F05F3F71F04795A8
:102A0800880F97FB991F61F09F3F79F0879508958C
:102A1800121613061406551FF2CF4695F1DF08C0AB
:102A2800161617061806991FF1CF869571056105C8
:042A38000894089561
:102A3C00CF93C82F40E062E081E00E948B1440E00D
:102A4C0061E081E00E948B146C2F80E00E944117A2
:102A5C0041E060E081E00E948B148AE18A95F1F7F5
:102A6C0000C040E060E081E00E948B14CF9108959B
:102A7C00CF93C82F41E062E081E00E948B1440E0CC
:102A8C0061E081E00E948B146C2F80E00E94411762
:102A9C0041E060E081E00E948B148AE18A95F1F7B5
:102AAC0000C040E060E081E00E948B14CF9108955B
:102ABC00FA0160387105CCF0623871051CF063388E
:102ACC00710599F4A081B1819D012C5F3F4F318339
:102ADC0020834D915D916D917C91FC0140835183DC
:102AEC006283738381E090E0089580E090E0089524
:102AFC0097FB10F8169400080F93083098F00850C4
:102B0C00232F342F452F562F672F782F892F902D59
:102B1C00F4CF059497958795779567955795479535
:0C2B2C00379527950A95AAF70F91089598
:102B38002F923F924F925F926F927F928F929F92C5
:102B4800AF92BF92CF92DF92EF92FF920F931F93B3
:102B5800CF93DF93CDB7DEB7CA1BDB0B0FB6F89464
:082B6800DEBF0FBECDBF0994D2
:102B70002A88398848885F846E847D848C849B840D
:102B8000AA84B984C884DF80EE80FD800C811B811B
:102B9000AA81B981CE0FD11D0FB6F894DEBF0FBE4A
:062BA000CDBFED01089518
:102BA6000F93083090F0982F872F762F652F542F8C
:102BB600432F322F22270850F4CF220F331F441FF2
:102BC600551F661F771F881F991F0A95B2F70F9129
:022BD600089560
:102BD800A2E0B0E0E2EFF5E10C94AA158C013A838B
:102BE80029839E012F5F3F4F0E94DA00F801208160
:102BF80024FF02C08FEF9FEF2296E4E00C94C615E5
:102C0800CF92DF92EF926B01E82EA82FCB01FC0147
:102C18002491A7FD2081222319F00196A11DF7CF49
:0C2C28008C199D09EF90DF90CF9008956B
:102C3400CF93883078F4C82F81E00E949D13C0930D
:102C44008D0088EB8C0F0E941E1510928C0080E47E
:082C54000E941E15CF910895A6
:102C5C00853688F4982F80E064E670E00E94421676
:102C6C0061506CBF83B7816083BF83B7826083BFC1
:082C7C0083B78B7F83BF08952D
:102C840097FB072E16F4009407D077FD09D00E9415
:102C9400561607FC05D03EF4909581959F4F0895F4
:082CA400709561957F4F0895C2
:102CAC00AA1BBB1B51E107C0AA1FBB1FA617B70766
:102CBC0010F0A61BB70B881F991F5A95A9F7809582
:082CCC009095BC01CD010895B3
:102CD400A0E0B0E0E0E7F6E10C94AC159E01265FBD
:102CE4003F4F4F81588569858D819E810E941417BD
:062CF400E2E00C94C8159B
:102CFA00CF93C62F60E00E945811CC2319F0C1303F
:102D0A0021F006C0FC01108203C02FEFFC012083D2
:042D1A00CF910895B8
:102D1E00813041F018F0823049F008958BB780640D
:102D2E008BBF08958BB780688BBF08958BB7806279
:042D3E008BBF0895AA
:102D42008FB58E7F8FBD8FB58D7F8FBD8EB5877FFF
:102D52008EBD8EB58F7E8EBD1DBC1CBC89B78460B6
:042D620089BF089588
:102D6600092E0394000C11F4882352F0BB0F40F493
:102D7600BF2B11F460FF04C06F5F7F4F8F4F9F4FD3
:022D86000895AE
:102D880040E066E081E00E948B1485E38A95F1F7C4
:0E2D9800000041E066E081E00E948B14089587
:102DA6009A01462FDC01F901549147FD50815D934C
:0C2DB6002F5F3F4F4F4F5111F6CF089593
:102DC200CF93DF93EC0103C00E94480821968881CB
:0A2DD2008111FACFDF91CF9108952F
:102DDC0083B7806483BF83B7886083BF83B78F7EDC
:0A2DEC0083BF83B7806283BF0895A0
:102DF600992777FD05C005900D920197E1F7089593
:0A2E060001900D920197E1F7089585
:102E10000024A7FD00942A0F301D401D501D601D89
:082E2000701D801D901D089536
:102E28000F931F9389019A01462F6FEF7FE70E9446
:082E3800AB111F910F910895E9
:102E40000024A7FD00942A173005400550056005B1
:082E500070058005900508954E
:102E5800EC010E94BA170E94B917CE010E94BB1755
:062E6800CE010E94B71725
:102E6E008EB581608EBD8EB582608EBD8EB58B7F28
:042E7E008EBD089568
:102E8200CF93C62F61E00E945811FC01C083CF91FD
:022E92000895A1
:102E94002A0D3B1D4C1D5D1D6E1D7F1D801F911F46
:022EA40008958F
:102EA600FC01480F591FE417F50711F06193FBCF9A
:022EB60008957D
:102EB8009C01215431092A31310508F480620895B2
:0E2EC8000E9435146894B1110C947A17089585
:0E2ED60000240A941616170618060906089519
:0E2EE40000240A94121613061406050608951B
:0E2EF200E894BB2766277727CB0197F9089550
:0E2F00005058BB27AA270E9442100C94B3160B
:0C2F0E0097F99F6780E870E060E008958C
:0C2F1A00EE0FFF1F0590F491E02D0994CC
:0A2F26000E94D81408F481E0089519
:0A2F30000E94D81408F48FEF0895F2
:082F3A008FB780688FBF089576
:082F42000E94FD0E0C94B31671
:082F4A000E94D80F0C94B3168D
:062F52009FEF80EC0895E2
:062F580080E090E0089506
:062F5E0080E090E0089500
:062F640080E090E00895FA
:042F6A000C940000C3
:042F6E000E94B0000D
:022F72000895C0
:022F74000895BE
:022F76000895BC
:00000001FF
